:100000000C945D000C9485000C9485000C94850084
:100010000C9485000C9485000C9485000C9485004C
:100020000C9485000C9485000C9485000C94FF01C1
:100030000C9485000C9485000C9485000C9485002C
:100040000C9435030C9485000C94FB020C94C002B4
:100050000C9485000C9485000C9485000C9485000C
:100060000C9485000C9485000000000024002700FB
:100070002A0000000000250028002B0004040404CE
:100080000404040402020202020203030303030342
:10009000010204081020408001020408102001021F
:1000A00004081020000000070002010000030406FD
:1000B00000000000000000007F0311241FBECFEFEE
:1000C000D8E0DEBFCDBF11E0A0E0B1E0E4EDFCE0A0
:1000D00002C005900D92A031B107D9F721E0A0E14F
:1000E000B1E001C01D92AC3EB207E1F710E0CDE5F2
:1000F000D0E004C02197FE010E946206CC35D107F2
:10010000C9F70E94F0030C94F0050C9400000895C8
:10011000CF92DF92EF92FF920F931F93CF93DF93D3
:100120006C01EB017B01E40EF51E00E010E0CE1542
:10013000DF0561F06991D601ED91FC910190F081AC
:10014000E02DC6010995080F191FF1CFC801DF91F5
:10015000CF911F910F91FF90EF90DF90CF90089576
:1001600090E0FC01EC55FF4F2491FC01E057FF4F5C
:100170003491FC01E458FF4FE491EE2309F43CC0B4
:10018000222339F1233091F038F42130A9F02230C4
:1001900001F584B58F7D12C0263091F02730A1F093
:1001A0002430B9F4809180008F7D03C0809180005D
:1001B0008F77809380000DC084B58F7784BD09C090
:1001C0008091B0008F7703C08091B0008F7D8093C5
:1001D000B000F0E0EE0FFF1FEE58FF4FA591B49175
:1001E0009FB7F894611104C08C913095382302C0F8
:1001F000EC913E2B3C939FBF08950F931F93CF9399
:10020000DF93FC01A685B7858D01005C1F4FE801D7
:100210008881998101968F739927AD014E5B5F4F5D
:10022000EA012881398128173907D1F3E8012881AB
:100230003981A20FB31F6C93A685B785A05CBF4F11
:1002400011969C938E93A689B7892C9181E090E0BA
:10025000078C02C0880F991F0A94E2F7822B8C93B7
:1002600081E081A30488F589E02D8081806480830A
:1002700081E090E0DF91CF911F910F910895FC01F3
:1002800081A1882329F0A489B5898C9186FFFBCFB1
:1002900011A20895FC01A485B585FD01E05CFF4F26
:1002A000208131813296808191812817390779F038
:1002B00080819181A80FB91F8C91208131812F5F9E
:1002C0003F4F2F7333273183208390E008958FEFC2
:1002D0009FEF0895DC011C96ED91FC911D97DF01C5
:1002E000A05CBF4F2D913C91119712968D919C91DE
:1002F00011972817390739F08D919C91E80FF91F54
:10030000808190E008958FEF9FEF08952FB7F894C4
:100310008091160190911701A0911801B0911901D7
:100320002FBF8093AA019093AB01A093AC01B0932F
:10033000AD0182EA91E00E946A0197FF26C02FB7C3
:10034000F8948091160190911701A0911801B09135
:1003500019012FBF4091AA015091AB016091AC01EE
:100360007091AD01841B950BA60BB70B4091A601B4
:100370005091A7016091A8017091A9018417950778
:10038000A607B707B0F28FEF9FEF0895FC01248511
:100390003585F901E05CFF4F8081918132962081A3
:1003A0003181821B930B8F739927089582EA91E024
:1003B0000C94C6013FB7F8948091110190911201FD
:1003C000A0911301B091140126B5A89B05C02F3F41
:1003D00019F00196A11DB11D3FBFBA2FA92F982F6B
:1003E0008827820F911DA11DB11DBC01CD0142E0E6
:1003F000660F771F881F991F4A95D1F708951F929E
:100400000F920FB60F9211242F933F934F935F9348
:100410006F937F938F939F93AF93BF93EF93FF93CC
:100420008091150187FF05C010928500109284000D
:100430001BC020911501022E000C330B8091E801A6
:1004400090E02817390784F480911501082E000CDC
:10045000990BFC01EE0FFF1F8E0F9F1FFC01EC5349
:10046000FE4F808186FD15C0809115018F5F8093BE
:10047000150120911501022E000C330B8091E8012B
:1004800090E028173907C4F4809115018C3064F18D
:1004900013C080911501082E000C990BFC01EE0F82
:1004A000FF1F8E0F9F1FFC01EC53FE4F808160E009
:1004B0008F730E94B000D8CF809184009091850006
:1004C000049680349C4918F480E49CE905C080912E
:1004D0008400909185000496909389008093880011
:1004E0008FEF809315013BC02091840030918500EF
:1004F00080911501082E000C990BFC01EE0FFF1FD7
:100500008E0F9F1FFC01EC53FE4F81819281820F61
:10051000931F909389008093880080911501082E85
:10052000000C990BFC01EE0FFF1F8E0F9F1FFC01AB
:10053000EC53FE4F808186FF12C080911501082E7A
:10054000000C990BFC01EE0FFF1F8E0F9F1FFC018B
:10055000EC53FE4F808161E08F730E94B000FF91E9
:10056000EF91BF91AF919F918F917F916F915F912B
:100570004F913F912F910F900FBE0F901F901895A4
:100580001F920F920FB60F9211242F933F938F93C8
:100590009F93EF93FF9320915A0130915B018091DB
:1005A0005C0190915D012817390731F48091C100F9
:1005B0008F7D8093C10014C0E0915C01F0915D01DA
:1005C000E65EFE4F208180915C0190915D01019675
:1005D0008F73992790935D0180935C012093C600EF
:1005E000FF91EF919F918F913F912F910F900FBEAF
:1005F0000F901F9018951F920F920FB60F92112413
:100600002F934F935F938F939F93EF93FF938091DB
:10061000C00082FD1CC02091C60080919E01909177
:100620009F014091A0015091A10101968F739927DC
:100630004817590771F0E0919E01F0919F01E25A2D
:10064000FE4F208390939F0180939E0102C0809172
:10065000C600FF91EF919F918F915F914F912F91E4
:100660000F900FBE0F901F9018951F920F920FB60C
:100670000F9211242F933F938F939F93AF93BF9328
:100680008091160190911701A0911801B091190164
:100690003091100123E0230F2D3720F40196A11D86
:1006A000B11D05C026E8230F0296A11DB11D2093A0
:1006B00010018093160190931701A0931801B09335
:1006C00019018091110190911201A0911301B09133
:1006D00014010196A11DB11D809311019093120187
:1006E000A0931301B0931401BF91AF919F918F918B
:1006F0003F912F910F900FBE0F901F901895109261
:10070000A5011092A40188EE93E0A0E0B0E08093F0
:10071000A6019093A701A093A801B093A90184E03A
:1007200091E09093A3018093A2018EE591E09093D4
:10073000AF018093AE018AE191E09093B101809383
:10074000B00185EC90E09093B3018093B20184EC0A
:1007500090E09093B5018093B40180EC90E0909389
:10076000B7018093B60181EC90E09093B90180933A
:10077000B80182EC90E09093BB018093BA0186ECC3
:1007800090E09093BD018093BC0184E08093BE0112
:1007900083E08093BF0187E08093C00185E0809370
:1007A000C10181E08093C2018091E8018C30A0F406
:1007B00091E0980F9093E8018093E90190E0FC01AB
:1007C000EE0FFF1F8E0F9F1FFC01EC53FE4F88EBB7
:1007D0009BE09283818308958FEF8093E9010895D0
:1007E000789484B5826084BD84B5816084BD85B50C
:1007F000826085BD85B5816085BD80916E00816018
:1008000080936E00109281008091810082608093BD
:1008100081008091810081608093810080918000BF
:100820008160809380008091B10084608093B100EA
:100830008091B00081608093B00080917A008460E4
:1008400080937A0080917A00826080937A00809110
:100850007A00816080937A0080917A00806880932A
:100860007A001092C1008091E9018C3008F068C0D4
:10087000E4E9F0E02491E0E8F0E08491882399F045
:1008800090E0880F991FFC01E859FF4FA591B491A2
:10089000FC01EE58FF4F859194918FB7F894EC913D
:1008A000E22BEC938FBF8091E901E82FF0E09F01EC
:1008B000220F331FE20FF31FEC53FE4F9081907C09
:1008C000946090831092EA011092EB016CE00E9418
:1008D00056069CE0899FB001112440E050E09B0146
:1008E000240F351FF901EE0FFF1F2E0F3F1FF901D7
:1008F000EC53FE4F908196FD16C04F5F5F4F4C301A
:10090000510569F781110FC01092800082E0809339
:1009100081001092850010928400B19A80916F003E
:10092000826080936F00E091E901F0E0CF01880FD1
:10093000991FE80FF91FEC53FE4F8081806480837C
:10094000E091B601F091B70181E090E09C01009048
:10095000C20102C0220F331F0A94E2F72083E09104
:10096000B201F091B3011082E091B401F091B501B0
:100970002FEC20831092C301E091B801F091B901EE
:1009800040819C010090BE0102C0220F331F0A94D7
:10099000E2F7242B2083E091B801F091B901408166
:1009A0009C010090BF0102C0220F331F0A94E2F79E
:1009B000242B2083E091B801F091B90140819C0182
:1009C0000090C00102C0220F331F0A94E2F7242BCB
:1009D0002083E091B801F091B90120810090C1011C
:1009E00002C0880F991F0A94E2F7809582238083C2
:1009F000C8E8D0E008E512E084EBC82ED12CE12C49
:100A0000F12C82EA91E00E94C601181619060CF03A
:100A100089C00E948601FC0197FD0DC08D329105B1
:100A200009F4A1C0C0970A9708F49DC082EA91E03A
:100A30000E944A01EECF812C912C5401940118148C
:100A400019040CF06FC070E2871672E09706ACF5DF
:100A50008091EA012E01481A510887FD5394440CF5
:100A6000551C440C551C052C000C66087708809119
:100A7000EB019801281B310987FD3395220F331FA5
:100A8000220F331FC901330FAA0BBB0B9C01AD0111
:100A90002419350946095709D401A53BB10514F0BD
:100AA000A4EBB0E00E941D06A70196010E94F30589
:100AB000420E531E641E751E92014091E9014C3096
:100AC00088F58091EA01BE01681B710987FD739565
:100AD000CB01880F991F880F991F2817390784F0B9
:100AE0008091EB01B801681B710987FD7395660F52
:100AF000771F660F771FC901621773070CF4CB01CC
:100B00005FB7F894242F30E0F901EE0FFF1F2E0F8E
:100B10003F1FF901EC53FE4F0297880F991F9283F4
:100B200081835FBF0E94DA015B0188EE482E83E07B
:100B3000582E612C712C0E94DA016A197B09683EDB
:100B40007340C8F391E0491A51086108710868E1DF
:100B5000A61A6CEFB60A411451046104710459F7E6
:100B60000E94D6014ECF812C912C5401712CE13082
:100B7000F105E9F0ED32F105C1F0CF01C0970A9718
:100B8000B0F4AAE0B0E0A50194010E9412064F0162
:100B9000FF0FAA08BB08860E971EA81EB91E60E3A9
:100BA000861A9108A108B10802C07724739482EADA
:100BB00091E00E944A010E948601FC01C0970A97B9
:100BC000B0F2E130F10599F2772009F437CFB09413
:100BD000A09490948094811C911CA11CB11C2ECFD8
:100BE000F8940C946806052E97FB1EF400940E945E
:100BF0000A0657FD07D00E94250607FC03D04EF4D5
:100C00000C940A0650954095309521953F4F4F4FD3
:100C10005F4F089590958095709561957F4F8F4FA8
:100C20009F4F08950E944706A59F900DB49F900D79
:100C3000A49F800D911D11240895B7FF0C941206F6
:100C40000E941206821B930B0895A1E21A2EAA1B82
:100C5000BB1BFD010DC0AA1FBB1FEE1FFF1FA2176C
:100C6000B307E407F50720F0A21BB30BE40BF50B69
:100C7000661F771F881F991F1A9469F760957095F2
:100C8000809590959B01AC01BD01CF010895A29F75
:100C9000B001B39FC001A39F700D811D1124911D50
:100CA000B29F700D811D1124911D0895991B79E04B
:100CB00004C0991F961708F0961B881F7A95C9F7EC
:100CC00080950895EE0FFF1F0590F491E02D099493
:040CD000F894FFCFC6
:100CD40000000000FD008800C6014A016A013F01CE
:00000001FF
