:100000000C945D000C9485000C9485000C94850084
:100010000C9485000C9485000C9485000C9485004C
:100020000C9485000C9485000C9485000C94F900C8
:100030000C9485000C9485000C9485000C9485002C
:100040000C94BA010C9485000C9485000C948500E6
:100050000C9485000C9485000C9485000C9485000C
:100060000C9485000C9485000000000024002700FB
:100070002A0000000000250028002B0004040404CE
:100080000404040402020202020203030303030342
:10009000010204081020408001020408102001021F
:1000A00004081020000000070002010000030406FD
:1000B0000000000000000000750311241FBECFEFF8
:1000C000D8E0DEBFCDBF11E0A0E0B1E0E4E2F8E0AF
:1000D00002C005900D92A030B107D9F721E0A0E051
:1000E000B1E001C01D92A233B207E1F710E0CDE507
:1000F000D0E004C02197FE010E940A04CC35D1074C
:10010000C9F70E9404020C9491030C94000090E043
:10011000FC01EC55FF4F2491FC01E057FF4F349157
:10012000FC01E458FF4FE491EE2309F43CC0222384
:1001300039F1233091F038F42130A9F0223001F563
:1001400084B58F7D12C0263091F02730A1F0243085
:10015000B9F4809180008F7D03C0809180008F77FB
:10016000809380000DC084B58F7784BD09C08091D5
:10017000B0008F7703C08091B0008F7D8093B00076
:10018000F0E0EE0FFF1FEE58FF4FA591B4919FB71F
:10019000F894611104C08C913095382302C0EC9121
:1001A0003E2B3C939FBF08953FB7F8948091050183
:1001B00090910601A0910701B091080126B5A89B76
:1001C00005C02F3F19F00196A11DB11D3FBFBA2FE9
:1001D000A92F982F8827820F911DA11DB11DBC0149
:1001E000CD0142E0660F771F881F991F4A95D1F70E
:1001F00008951F920F920FB60F9211242F933F93E1
:100200004F935F936F937F938F939F93AF93BF931E
:10021000EF93FF938091310187FF05C01092850015
:10022000109284001BC020913101022E000C330B70
:100230008091300190E02817390784F480913101D2
:10024000082E000C990BFC01EE0FFF1F8E0F9F1F55
:10025000FC01E45FFE4F808186FD15C08091310175
:100260008F5F8093310120913101022E000C330BFE
:100270008091300190E028173907C4F48091310152
:100280008C3064F113C080913101082E000C990B61
:10029000FC01EE0FFF1F8E0F9F1FFC01E45FFE4F5E
:1002A000808160E08F730E948700D8CF80918400A6
:1002B00090918500049680349C4918F480E49CE970
:1002C00005C08091840090918500049690938900E8
:1002D000809388008FEF809331013BC02091840090
:1002E0003091850080913101082E000C990BFC01A2
:1002F000EE0FFF1F8E0F9F1FFC01E45FFE4F8181F9
:100300009281820F931F909389008093880080913F
:100310003101082E000C990BFC01EE0FFF1F8E0F10
:100320009F1FFC01E45FFE4F808186FF12C0809119
:100330003101082E000C990BFC01EE0FFF1F8E0FF0
:100340009F1FFC01E45FFE4F808161E08F730E947C
:100350008700FF91EF91BF91AF919F918F917F9116
:100360006F915F914F913F912F910F900FBE0F9022
:100370001F9018951F920F920FB60F9211242F9372
:100380003F938F939F93AF93BF938091010190917F
:100390000201A0910301B09104013091000123E01A
:1003A000230F2D3720F40196A11DB11D05C026E8AD
:1003B000230F0296A11DB11D20930001809301011E
:1003C00090930201A0930301B09304018091050171
:1003D00090910601A0910701B09108010196A11D1D
:1003E000B11D8093050190930601A0930701B0937E
:1003F0000801BF91AF919F918F913F912F910F90E5
:100400000FBE0F901F901895789484B5826084BDBC
:1004100084B5816084BD85B5826085BD85B5816008
:1004200085BD80916E00816080936E001092810086
:100430008091810082608093810080918100816041
:100440008093810080918000816080938000809102
:10045000B10084608093B1008091B000816080938E
:10046000B00080917A00846080937A0080917A0055
:10047000826080937A0080917A00816080937A0014
:1004800080917A00806880937A001092C1008091F8
:1004900009018C3008F068C0E4E9F0E02491E0E85C
:1004A000F0E08491882399F090E0880F991FFC0177
:1004B000E859FF4FA591B491FC01EE58FF4F85918B
:1004C00094918FB7F894EC91E22BEC938FBF8091CD
:1004D0000901E82FF0E09F01220F331FE20FF31F05
:1004E000E45FFE4F9081907C9460908310920A01AB
:1004F00010920B016CE00E94F7034CE0849FB00166
:10050000112440E050E09B01240F351FF901EE0F4C
:10051000FF1F2E0F3F1FF901E45FFE4F908196FDF4
:1005200016C04F5F5F4F4C30510569F781110FC006
:100530001092800082E080938100109285001092DA
:100540008400B19A80916F00826080936F00E09187
:100550000901F0E0CF01880F991FE80FF91FE45F50
:10056000FE4F80818064808388248A9493E0992E52
:10057000A12CB12C28E8222E312C08E512E034EB16
:10058000432E512C612C712C50E450937C008091AF
:100590007A00806480937A0080917A0086FDFCCF97
:1005A000A091780080917900B0E0B82B23EB30E087
:1005B0000E940304A50194010E949403F9012032D2
:1005C00082E03807DCF537FD06C0253B31052CF00D
:1005D000E4EBF0E002C0E0E0F0E080910A016101AC
:1005E000C81AD10887FDD394D601AA0FBB1FAA0F42
:1005F000BB1F6D01BB0FEE08FF0880910B01B80116
:10060000681B710987FD7395660F771F660F771F4B
:10061000CB01770FAA0BBB0B9C01AD012C193D0937
:100620004E095F09DF010E94BE03A30192010E94EF
:100630009403C20ED31EE41EF51EF601209109019B
:100640002C3080F580910A01A101481B510987FDDA
:100650005395CA01880F991F880F991FE817F9074A
:1006600084F080910B01B801681B710987FD7395B7
:10067000660F771F660F771FCF016E177F070CF489
:10068000CB016FB7F89430E0A901440F551F240F38
:10069000351FF901E45FFE4F0297880F991F92837F
:1006A00081836FBF0E94D400EB018FE0C82ED12C54
:1006B000E12CF12C0E94D4006C1B7D0B683E734032
:1006C000C8F381E0C81AD108E108F108C851DC4F2D
:1006D000C114D104E104F10469F740E050E0452B76
:1006E00009F452CF0E9400004FCF809130018C302E
:1006F000A0F491E0980F909330018093090190E06D
:10070000FC01EE0FFF1F8E0F9F1FFC01E45FFE4FE9
:1007100088EB9BE09283818308958FEF809309019A
:100720000895F8940C941004052E97FB1EF4009481
:100730000E94AB0357FD07D00E94C60307FC03D0FD
:100740004EF40C94AB0350954095309521953F4F56
:100750004F4F5F4F089590958095709561957F4FAD
:100760008F4F9F4F08950E94E803A59F900DB49F5F
:10077000900DA49F800D911D11240895B7FF0C9436
:10078000B3030E94B303821B930B0895A1E21A2EB8
:10079000AA1BBB1BFD010DC0AA1FBB1FEE1FFF1F25
:1007A000A217B307E407F50720F0A21BB30BE40B75
:1007B000F50B661F771F881F991F1A9469F76095BC
:1007C0007095809590959B01AC01BD01CF01089576
:1007D000A29FB001B39FC001A39F700D811D112482
:1007E000911DB29F700D811D1124911D0895991BBB
:1007F00079E004C0991F961708F0961B881F7A9518
:10080000C9F7809508950E94E803B7FF0895821BF9
:10081000930B0895EE0FFF1F0590F491E02D0994BE
:04082000F894FFCF7A
:00000001FF
