:100000000C945D000C9485000C9485000C94850084
:100010000C9485000C9485000C9485000C9485004C
:100020000C9485000C9485000C9485000C9444037A
:100030000C9485000C9485000C9485000C9485002C
:100040000C947A040C9485000C9440040C940504E0
:100050000C9485000C9485000C9485000C9485000C
:100060000C9485000C94850000000007000201003C
:100070000003040600000000000000000000000073
:10008000250028002B0000000000240027002A0083
:10009000040404040404040402020202020203032E
:1000A0000303030301020408102040800102040836
:1000B0001020010204081020C40411241FBECFEF39
:1000C000D8E0DEBFCDBF11E0A0E0B1E0EAE8F3E1A7
:1000D00002C005900D92A831B107D9F721E0A8E13F
:1000E000B1E001C01D92AB3FB207E1F710E0CDE5F2
:1000F000D0E004C02197FE010E94BD09CC35D10794
:10010000C9F70E9450050C9408070C94000090E079
:10011000FC01EC55FF4F2491FC01E057FF4F849107
:10012000882399F090E0880F991FFC01EA57FF4F50
:10013000A591B491FC01E458FF4F859194918FB73C
:10014000F894EC91E22BEC938FBF08950895CF9231
:10015000DF92EF92FF920F931F93CF93DF936C0187
:10016000EB017B01E40EF51E00E010E0CE15DF058B
:1001700061F06991D601ED91FC910190F081E02D43
:10018000C6010995080F191FF1CFC801DF91CF9162
:100190001F910F91FF90EF90DF90CF90089590E026
:1001A000FC01E859FF4F2491FC01EC55FF4F3491BD
:1001B000FC01E057FF4FE491EE2309F43CC02223F9
:1001C00039F1233091F038F42130A9F0223001F5D3
:1001D00084B58F7D12C0263091F02730A1F02430F5
:1001E000B9F4809180008F7D03C0809180008F776B
:1001F000809380000DC084B58F7784BD09C0809145
:10020000B0008F7703C08091B0008F7D8093B000E5
:10021000F0E0EE0FFF1FE458FF4FA591B4919FB798
:10022000F894611104C08C913095382302C0EC9190
:100230003E2B3C939FBF0895CF92DF92EF92FF92A7
:10024000CF93DF93EC01603282E078070CF03DC081
:1002500077FD06C0653B71052CF064EB70E002C0D1
:1002600060E070E0898128E830E06901C81AD108AF
:1002700087FDD394CC0CDD1CCC0CDD1C0D2C000CAC
:10028000EE08FF088A8128E532E0281B310987FD46
:100290003395220F331F220F331FC901330FAA0BCF
:1002A000BB0B9C01AD012C193D094E095F09DB0117
:1002B0000E944A0724EB30E040E050E00E94200713
:1002C000C20ED31EE41EF51EB60138813C3080F507
:1002D000298188E890E0821B910927FD9395880F7A
:1002E000991F880F991F6817790784F08A8148E55C
:1002F00052E0481B510987FD5395440F551F440F89
:10030000551FCB01461757070CF4CA014FB7F89495
:10031000232F30E0F901EE0FFF1F2E0F3F1FF901D1
:10032000E453FE4F0297880F991F928381834FBF3A
:10033000DF91CF91FF90EF90DF90CF900895892BC0
:1003400079F41092800082E0809381001092850001
:1003500010928400B19A80916F00826080936F0048
:1003600008950F931F93CF93DF93FC01A685B78564
:100370008D01005C1F4FE8018881998101968F7380
:100380009927AD014E5B5F4FEA012881398128171B
:100390003907D1F3E80128813981A20FB31F6C938B
:1003A000A685B785A05CBF4F11969C938E93A689B6
:1003B000B7892C9181E090E0078C02C0880F991FCB
:1003C0000A94E2F7822B8C9381E081A30488F5895B
:1003D000E02D80818064808381E090E0DF91CF9187
:1003E0001F910F910895FC0181A1882329F0A48910
:1003F000B5898C9186FFFBCF11A20895FC01A485DD
:10040000B585FD01E05CFF4F20813181329680810E
:1004100091812817390779F080819181A80FB91F40
:100420008C91208131812F5F3F4F2F733327318390
:10043000208390E008958FEF9FEF08952FB7F894F1
:1004400080911E0190911F01A0912001B091210186
:100450002FBF8093B2019093B301A093B401B093E6
:10046000B5018AEA91E00E94FE0197FF26C02FB7EE
:10047000F89480911E0190911F01A0912001B091EC
:1004800021012FBF4091B2015091B3016091B4019D
:100490007091B501841B950BA60BB70B4091AE0173
:1004A0005091AF016091B0017091B101841795072F
:1004B000A607B707B0F28FEF9FEF0895DC011C96F7
:1004C000ED91FC911D97DF01A05CBF4F2D913C91F8
:1004D000119712968D919C9111972817390739F031
:1004E0008D919C91E80FF91F808190E008958FEF26
:1004F0009FEF0895FC0124853585F901E05CFF4FED
:1005000080819181329620813181821B930B8F7380
:10051000992708958AEA91E00C947A023FB7F894FB
:100520008091190190911A01A0911B01B0911C01B9
:1005300026B5A89B05C02F3F19F00196A11DB11D3E
:100540003FBFBA2FA92F982F8827820F911DA11D79
:10055000B11DBC01CD0142E0660F771F881F991FB6
:100560004A95D1F708950F931F93CF93DF93EC0132
:1005700088819981009729F02A813B8126173707C6
:1005800088F48B016F5F7F4F0E94A408009761F091
:10059000998388831B830A832C813D81232B11F44B
:1005A000FC01108281E001C080E0DF91CF911F91BA
:1005B0000F910895CF92DF92EF92FF920F931F93C6
:1005C000CF93DF9300D0CDB7DEB78C01C62EFC01F0
:1005D000118210821382128215821482168260E0C8
:1005E00070E00E94B302F8012081318181110EC0B8
:1005F0002115310519F0C9010E941B08F80111826B
:100600001082158214821382128208C0F8011582AA
:10061000148266E171E0C9010E9473090E941E0202
:100620000C2C000CDD0897FD23C08C159D0501F1F5
:1006300089831A82F801E480F580FFEFEF1AFF0A40
:10064000B701C8010E94B302882379F0F801208124
:10065000318184819581BE016F5F7F4F820F931F2F
:100660000E947309F801F582E4820E941E02DBCF2A
:10067000C8010F900F90DF91CF911F910F91FF90C4
:10068000EF90DF90CF9008951F920F920FB60F92C8
:1006900011242F933F934F935F936F937F938F9387
:1006A0009F93AF93BF93EF93FF9380911D0187FFBB
:1006B00005C010928500109284001BC020911D017E
:1006C000022E000C330B8091F00190E028173907BF
:1006D00084F480911D01082E000C990BFC01EE0F93
:1006E000FF1F8E0F9F1FFC01E453FE4F808186FD8C
:1006F00015C080911D018F5F80931D0120911D0108
:10070000022E000C330B8091F00190E0281739077E
:10071000C4F480911D018C3064F113C080911D01DF
:10072000082E000C990BFC01EE0FFF1F8E0F9F1F70
:10073000FC01E453FE4F808160E08F730E94CF0084
:10074000D8CF8091840090918500049680349C4994
:1007500018F480E49CE905C08091840090918500A4
:10076000049690938900809388008FEF80931D01F9
:100770003BC0209184003091850080911D01082E9E
:10078000000C990BFC01EE0FFF1F8E0F9F1FFC0149
:10079000E453FE4F81819281820F931F90938900D1
:1007A0008093880080911D01082E000C990BFC019C
:1007B000EE0FFF1F8E0F9F1FFC01E453FE4F808141
:1007C00086FF12C080911D01082E000C990BFC01C0
:1007D000EE0FFF1F8E0F9F1FFC01E453FE4F808121
:1007E00061E08F730E94CF00FF91EF91BF91AF91B5
:1007F0009F918F917F916F915F914F913F912F9139
:100800000F900FBE0F901F9018951F920F920FB66A
:100810000F9211242F933F938F939F93EF93FF9306
:100820002091620130916301809164019091650192
:100830002817390731F48091C1008F7D8093C10062
:1008400014C0E0916401F0916501EE5DFE4F2081DE
:10085000809164019091650101968F73992790931F
:100860006501809364012093C600FF91EF919F91F1
:100870008F913F912F910F900FBE0F901F90189561
:100880001F920F920FB60F9211242F934F935F93E5
:100890008F939F93EF93FF938091C00082FD1CC0C4
:1008A0002091C6008091A6019091A7014091A801D6
:1008B0005091A90101968F7399274817590771F034
:1008C000E091A601F091A701EA59FE4F2083909391
:1008D000A7018093A60102C08091C600FF91EF910D
:1008E0009F918F915F914F912F910F900FBE0F901D
:1008F0001F9018951F920F920FB60F9211242F93ED
:100900003F938F939F93AF93BF9380911E019091DC
:100910001F01A0912001B09121013091180123E025
:10092000230F2D3720F40196A11DB11D05C026E827
:10093000230F0296A11DB11D2093180180931E0163
:1009400090931F01A0932001B09321018091190180
:1009500090911A01A0911B01B0911C010196A11D5B
:10096000B11D8093190190931A01A0931B01B093BC
:100970001C01BF91AF919F918F913F912F910F904B
:100980000FBE0F901F9018951092AD011092AC0100
:1009900088EE93E0A0E0B0E08093AE019093AF01C9
:1009A000A093B001B093B1018AE091E09093AB01C4
:1009B0008093AA0186E691E09093B7018093B601F7
:1009C00082E291E09093B9018093B80185EC90E0C8
:1009D0009093BB018093BA0184EC90E09093BD01A9
:1009E0008093BC0180EC90E09093BF018093BE01A6
:1009F00081EC90E09093C1018093C00182EC90E083
:100A00009093C3018093C20186EC90E09093C5015E
:100A10008093C40184E08093C60183E08093C70182
:100A200087E08093C80185E08093C90181E08093CD
:100A3000CA018091F0018C30A0F491E0980F90935E
:100A4000F0018093F40190E0FC01EE0FFF1F8E0F88
:100A50009F1FFC01E453FE4F88EB9BE09283818350
:100A600003C08FEF8093F4018091F0018C30A0F4EB
:100A700091E0980F9093F0018093F10190E0FC01D8
:100A8000EE0FFF1F8E0F9F1FFC01E453FE4F88EBFC
:100A90009BE09283818308958FEF8093F101089505
:100AA000CF93DF93CDB7DEB72E970FB6F894DEBFA6
:100AB0000FBECDBF789484B5826084BD84B581605B
:100AC00084BD85B5826085BD85B5816085BD809119
:100AD0006E00816080936E00109281008091810091
:100AE0008260809381008091810081608093810089
:100AF000809180008160809380008091B10084604B
:100B00008093B1008091B00081608093B0008091AB
:100B10007A00846080937A0080917A00826080936A
:100B20007A0080917A00816080937A0080917A00C7
:100B3000806880937A001092C1008091F4018C301B
:100B400008F042C084E00E9487008091F401E82F01
:100B5000F0E09F01220F331FE20FF31FE453FE4F1B
:100B60009081907C946090831092F5011092F60130
:100B70006CE00E947A0990E02CE0829FB001112481
:100B800040E050E09B01240F351FF901EE0FFF1FDD
:100B90002E0F3F1FF901E453FE4F208126FD07C0B1
:100BA0004F5F5F4F4C30510569F70E949F01E09104
:100BB000F401F0E0CF01880F991FE80FF91FE4530B
:100BC000FE4F8081806480838091F1018C3008F039
:100BD00042C085E00E9487008091F101E82FF0E09B
:100BE0009F01220F331FE20FF31FE453FE4F90814A
:100BF000907C956090831092F2011092F3016CE06A
:100C00000E947A0990E02CE0829FB001112440E01C
:100C100050E09B01240F351FF901EE0FFF1F2E0F2F
:100C20003F1FF901E453FE4F208126FD07C04F5FAF
:100C30005F4F4C30510569F70E949F01E091F1012F
:100C4000F0E0CF01880F991FE80FF91FE453FE4F22
:100C5000808180648083E091BE01F091BF0181E0DA
:100C600090E09C010090CA0102C0220F331F0A9439
:100C7000E2F72083E091BA01F091BB011082E0918C
:100C8000BC01F091BD012FEC20831092CB01E091CB
:100C9000C001F091C10140819C010090C60102C0D9
:100CA000220F331F0A94E2F7242B2083E091C00126
:100CB000F091C10140819C010090C70102C0220F48
:100CC000331F0A94E2F7242B2083E091C001F091B6
:100CD000C10140819C010090C80102C0220F331F56
:100CE0000A94E2F7242B2083E091C001F091C10126
:100CF00020810090C90102C0880F991F0A94E2F771
:100D00008095822380838AEA91E00E947A021816F5
:100D10001906C4F56CE7CE0108960E94DA028885B0
:100D20009985009719F00E94E10603C060E070E029
:100D3000CB017B016AE0CE0101960E94DA02898133
:100D40009A81009719F00E94E10603C060E070E00C
:100D5000CB018B011E141F042CF4B70184EF91E02A
:100D60000E941C01101611062CF4B80181EF91E0CD
:100D70000E941C0189819A810E941B08888599859F
:100D80000E941B080E948E028B0188EEC82E83E011
:100D9000D82EE12CF12C0E948E02601B710B683E54
:100DA0007340C8F321E0C21AD108E108F1080851E4
:100DB0001C4FC114D104E104F10469F70E948A02B6
:100DC000A2CF1F93FC0199278827BC01E8941191B9
:100DD0001032E9F3193010F01E30C8F31B3251F015
:100DE0001D3249F4689406C00E940B07610F711D03
:100DF000811D911D119110531A30B0F33EF490955E
:100E00008095709561957F4F8F4F9F4F1F910895EB
:100E1000F8940C94C309592F482F372F262F660FAB
:100E2000771F881F991F660F771F881F991F620FF2
:100E3000731F841F951F660F771F881F991F0895C2
:100E4000052E97FB1EF400940E94370757FD07D02C
:100E50000E94520707FC03D04EF40C9437075095BC
:100E60004095309521953F4F4F4F5F4F0895909596
:100E70008095709561957F4F8F4F9F4F08950E9489
:100E80007407A59F900DB49F900DA49F800D911D98
:100E900011240895B7FF0C943F070E943F07821B5F
:100EA000930B0895A1E21A2EAA1BBB1BFD010DC0D6
:100EB000AA1FBB1FEE1FFF1FA217B307E407F5070A
:100EC00020F0A21BB30BE40BF50B661F771F881FE6
:100ED000991F1A9469F760957095809590959B017C
:100EE000AC01BD01CF010895A29FB001B39FC00125
:100EF000A39F700D811D1124911DB29F700D811D46
:100F00001124911D08950F931F93CF93DF93823087
:100F1000910510F482E090E0E091F901F091FA017E
:100F200020E030E0A0E0B0E0309719F1408151813D
:100F30000281138148175907C8F08417950769F48F
:100F4000109731F012960C93129713961C9327C0AA
:100F50000093F9011093FA0122C02115310519F00F
:100F60004217530718F49A01BD01EF01DF01F801A0
:100F7000DBCF21153105F9F0281B390B2430310561
:100F800080F48A819B816115710521F0FB019383B7
:100F9000828304C09093FA018093F901FE01329696
:100FA00044C0FE01E20FF31F819391932250310957
:100FB000398328833AC02091F7013091F801232B1F
:100FC00041F420910201309103013093F801209304
:100FD000F70120910001309101012115310541F403
:100FE0002DB73EB74091040150910501241B350BEC
:100FF000E091F701F091F801E217F307A0F42E1B3E
:101000003F0B2817390778F0AC014E5F5F4F24176C
:10101000350748F04E0F5F1F5093F8014093F701DA
:101020008193919302C0E0E0F0E0CF01DF91CF9196
:101030001F910F910895CF93DF93009709F481C01A
:10104000FC01329713821282A091F901B091FA014A
:10105000109781F420813181820F931F2091F70135
:101060003091F8012817390751F5F093F801E09312
:10107000F70167C0ED0120E030E0CE17DF0740F454
:101080004A815B819E0141155105F1F0EA01F5CFDE
:10109000D383C28340815181840F951FC817D9071C
:1010A00059F488819981840F951F029691838083DA
:1010B0008A819B81938382832115310529F4F093E2
:1010C000FA01E093F9013DC0E901FB83EA8349910C
:1010D0005991C40FD51FEC17FD0761F480819181F0
:1010E000840F951F0296E9019983888382819381F9
:1010F0009B838A83E0E0F0E012968D919C91139798
:10110000009719F0FD01DC01F7CF8D919C911197AB
:101110009D012E5F3F4F820F931F2091F701309169
:10112000F8012817390769F4309729F41092FA0169
:101130001092F90102C013821282B093F801A093B9
:10114000F701DF91CF910895A0E0B0E0EAEAF8E07E
:101150000C948A09EC01009721F4CB010E948307CB
:10116000B4C0FC01E60FF71F9C0122503109E217C1
:10117000F30708F4A8C0D9010D911C911197061727
:101180001707B0F00530110508F49BC0C80104979B
:101190008617970708F495C002501109061B170B14
:1011A000019311936D937C93CF010E941B0889C01A
:1011B0005B01A01AB10A4C01800E911EA091F901A9
:1011C000B091FA01612C712CE12CF12C109709F4EB
:1011D00046C08D919C911197A815B905B1F56C0188
:1011E00042E0C40ED11CCA14DB0478F14C018A1809
:1011F0009B08640142E0C40ED11C1296BC90129769
:101200001396AC91B5E0CB16D10440F0B282A38323
:1012100091828082D9016D937C9309C00E5F1F4F2C
:10122000800F911FF90191838083EB2DFA2FE11438
:10123000F10431F0D7011396FC93EE93129741C05D
:10124000F093FA01E093F9013CC06816790608F4BE
:101250003C017D0112960D90BC91A02DB7CF8091DD
:10126000F7019091F80188169906E1F46616770661
:10127000C8F48091000190910101009741F48DB76D
:101280009EB74091040150910501841B950BE8170E
:10129000F907C8F4F093F801E093F701F9017183BD
:1012A00060830FC0CB010E9483077C01009759F037
:1012B000A801BE010E946A09CE010E941B08C70155
:1012C00004C0CE0102C080E090E0CDB7DEB7EEE012
:1012D0000C94A609FB01DC0102C001900D92415063
:1012E0005040D8F70895FB01DC0101900D920020D9
:1012F000E1F70895991B79E004C0991F961708F04B
:10130000961B881F7A95C9F7809508952F923F9272
:101310004F925F926F927F928F929F92AF92BF9205
:10132000CF92DF92EF92FF920F931F93CF93DF93B1
:10133000CDB7DEB7CA1BDB0B0FB6F894DEBF0FBE0E
:10134000CDBF09942A88398848885F846E847D845B
:101350008C849B84AA84B984C884DF80EE80FD805D
:101360000C811B81AA81B981CE0FD11D0FB6F894D3
:10137000DEBF0FBECDBFED010895EE0FFF1F05903C
:0A138000F491E02D0994F894FFCFDA
:10138A000000FB01200000000000B101A7007A0262
:08139A00FE015E02F3010000F8
:00000001FF
